{
  "contractName": "Patient",
  "abi": [
    {
      "constant": false,
      "inputs": [
        {
          "name": "patient_id",
          "type": "uint256"
        },
        {
          "name": "drug",
          "type": "string"
        }
      ],
      "name": "addPrescription",
      "outputs": [
        {
          "name": "",
          "type": "uint256"
        }
      ],
      "payable": false,
      "stateMutability": "nonpayable",
      "type": "function"
    },
    {
      "constant": false,
      "inputs": [
        {
          "name": "patient_id",
          "type": "uint256"
        },
        {
          "name": "index",
          "type": "uint256"
        }
      ],
      "name": "getPrescription",
      "outputs": [
        {
          "name": "drug_name",
          "type": "string"
        },
        {
          "name": "time_added",
          "type": "uint256"
        }
      ],
      "payable": false,
      "stateMutability": "nonpayable",
      "type": "function"
    }
  ],
  "bytecode": "0x608060405234801561001057600080fd5b50610416806100206000396000f30060806040526004361061004c576000357c0100000000000000000000000000000000000000000000000000000000900463ffffffff168063b9eb304b14610051578063e571fd2d14610108575b600080fd5b34801561005d57600080fd5b50610086600480360381019080803590602001909291908035906020019092919050505061018f565b6040518080602001838152602001828103825284818151815260200191508051906020019080838360005b838110156100cc5780820151818401526020810190506100b1565b50505050905090810190601f1680156100f95780820380516001836020036101000a031916815260200191505b50935050505060405180910390f35b34801561011457600080fd5b5061017960048036038101908080359060200190929190803590602001908201803590602001908080601f0160208091040260200160405190810160405280939291908181526020018383808284378201915050505050509192919290505050610277565b6040518082815260200191505060405180910390f35b6060600080838154811015156101a157fe5b90600052602060002090600202016000018054600181600116156101000203166002900480601f0160208091040260200160405190810160405280929190818152602001828054600181600116156101000203166002900480156102465780601f1061021b57610100808354040283529160200191610246565b820191906000526020600020905b81548152906001019060200180831161022957829003601f168201915b5050505050915060008381548110151561025c57fe5b90600052602060002090600202016001015490509250929050565b600061028161032b565b60408051908101604052808481526020014281525090506000819080600181540180825580915050906001820390600052602060002090600202016000909192909190915060008201518160000190805190602001906102e2929190610345565b5060208201518160010155505050600184908060018154018082558091505090600182039060005260206000200160009091929091909150555060018054905091505092915050565b604080519081016040528060608152602001600081525090565b828054600181600116156101000203166002900490600052602060002090601f016020900481019282601f1061038657805160ff19168380011785556103b4565b828001600101855582156103b4579182015b828111156103b3578251825591602001919060010190610398565b5b5090506103c191906103c5565b5090565b6103e791905b808211156103e35760008160009055506001016103cb565b5090565b905600a165627a7a7230582061f06c70a389ef125608a7bcdcb3000e535a02d82703e3bfb876556e7a9cb47d0029",
  "source": "pragma solidity ^0.4.18;\n\ncontract Patient {\n    Info[] drug_chain;\n    uint[] users;\n\n    struct Info {\n        string drug_name;\n        uint time_added;\n    }\n\n\t// manually check for the ID to be in the array or not.\n    function addPrescription(uint patient_id, string drug) public returns (uint) {\n\t\t\n        Info memory prescription = Info({drug_name: drug, time_added: now}); \n        drug_chain.push(prescription);\n        users.push(patient_id);\n        \n        return users.length;\n    }\n\n    function getPrescription(uint patient_id, uint index) public returns (\n        string drug_name,\n        uint time_added\n    ) {\n        drug_name = drug_chain[index].drug_name;\n        time_added = drug_chain[index].time_added;\n    }\n\t\n\n}\n",
  "sourcePath": "/home/osboxes/truffle/contracts/Patient.sol",
  "compiler": {
    "name": "solc",
    "version": "0.4.24+commit.e67f0147.Emscripten.clang"
  },
  "schemaVersion": "2.0.1",
  "updatedAt": "2018-11-11T06:40:06.359Z"
}