{
  "contractName": "Patient",
  "abi": [
    {
      "constant": true,
      "inputs": [
        {
          "name": "chainIndex",
          "type": "uint256"
        }
      ],
      "name": "getPrescription",
      "outputs": [
        {
          "name": "",
          "type": "uint256"
        },
        {
          "name": "",
          "type": "uint128"
        },
        {
          "name": "",
          "type": "uint128"
        },
        {
          "name": "",
          "type": "uint64"
        },
        {
          "name": "",
          "type": "string"
        },
        {
          "name": "",
          "type": "uint64[16]"
        },
        {
          "name": "",
          "type": "uint64"
        },
        {
          "name": "",
          "type": "uint16"
        },
        {
          "name": "",
          "type": "uint8"
        },
        {
          "name": "",
          "type": "bool"
        },
        {
          "name": "",
          "type": "uint64"
        }
      ],
      "payable": false,
      "stateMutability": "view",
      "type": "function"
    },
    {
      "constant": true,
      "inputs": [
        {
          "name": "",
          "type": "uint256"
        }
      ],
      "name": "drugChain",
      "outputs": [
        {
          "name": "patientID",
          "type": "uint256"
        },
        {
          "name": "prescriberID",
          "type": "uint128"
        },
        {
          "name": "dispenserID",
          "type": "uint128"
        },
        {
          "name": "drugID",
          "type": "uint64"
        },
        {
          "name": "drugQuantity",
          "type": "string"
        },
        {
          "name": "dateWritten",
          "type": "uint64"
        },
        {
          "name": "daysValid",
          "type": "uint16"
        },
        {
          "name": "refillsLeft",
          "type": "uint8"
        },
        {
          "name": "isCancelled",
          "type": "bool"
        },
        {
          "name": "cancelDate",
          "type": "uint64"
        }
      ],
      "payable": false,
      "stateMutability": "view",
      "type": "function"
    },
    {
      "constant": true,
      "inputs": [],
      "name": "getDrugChainLength",
      "outputs": [
        {
          "name": "",
          "type": "uint256"
        }
      ],
      "payable": false,
      "stateMutability": "view",
      "type": "function"
    },
    {
      "constant": false,
      "inputs": [
        {
          "name": "patientID",
          "type": "uint256"
        },
        {
          "name": "prescriberID",
          "type": "uint128"
        },
        {
          "name": "dispenserID",
          "type": "uint128"
        },
        {
          "name": "drugID",
          "type": "uint64"
        },
        {
          "name": "drugQuantity",
          "type": "string"
        },
        {
          "name": "fulfillmentDates",
          "type": "uint64[16]"
        },
        {
          "name": "dateWritten",
          "type": "uint64"
        },
        {
          "name": "daysValid",
          "type": "uint16"
        },
        {
          "name": "refillsLeft",
          "type": "uint8"
        },
        {
          "name": "isCancelled",
          "type": "bool"
        },
        {
          "name": "cancelDate",
          "type": "uint64"
        }
      ],
      "name": "addPrescription",
      "outputs": [
        {
          "name": "",
          "type": "uint256"
        }
      ],
      "payable": false,
      "stateMutability": "nonpayable",
      "type": "function"
    },
    {
      "constant": true,
      "inputs": [
        {
          "name": "prescriptionIndex",
          "type": "uint256"
        }
      ],
      "name": "getPatientPrescription",
      "outputs": [
        {
          "name": "patientID",
          "type": "uint256"
        },
        {
          "name": "prescriberID",
          "type": "uint128"
        },
        {
          "name": "dispenserID",
          "type": "uint128"
        },
        {
          "name": "drugID",
          "type": "uint64"
        },
        {
          "name": "drugQuantity",
          "type": "string"
        },
        {
          "name": "fulfillmentDates",
          "type": "uint64[16]"
        },
        {
          "name": "dateWritten",
          "type": "uint64"
        },
        {
          "name": "daysValid",
          "type": "uint16"
        },
        {
          "name": "refillsLeft",
          "type": "uint8"
        },
        {
          "name": "isCancelled",
          "type": "bool"
        },
        {
          "name": "cancelDate",
          "type": "uint64"
        }
      ],
      "payable": false,
      "stateMutability": "view",
      "type": "function"
    }
  ],
  "bytecode": "0x608060405234801561001057600080fd5b506115e9806100206000396000f3fe60806040526004361061006d576000357c0100000000000000000000000000000000000000000000000000000000900463ffffffff1680636f16af101461007257806382377b831461022a57806385c681cf146103e2578063cc9e2fe41461056b578063e9d20eff14610596575b600080fd5b34801561007e57600080fd5b506100ab6004803603602081101561009557600080fd5b810190808035906020019092919050505061075a565b604051808c81526020018b6fffffffffffffffffffffffffffffffff166fffffffffffffffffffffffffffffffff1681526020018a6fffffffffffffffffffffffffffffffff166fffffffffffffffffffffffffffffffff1681526020018967ffffffffffffffff1667ffffffffffffffff1681526020018060200188601060200280838360005b8381101561014e578082015181840152602081019050610133565b505050509050018767ffffffffffffffff1667ffffffffffffffff1681526020018661ffff1661ffff1681526020018560ff1660ff168152602001841515151581526020018367ffffffffffffffff1667ffffffffffffffff168152602001828103825289818151815260200191508051906020019080838360005b838110156101e55780820151818401526020810190506101ca565b50505050905090810190601f1680156102125780820380516001836020036101000a031916815260200191505b509c5050505050505050505050505060405180910390f35b34801561023657600080fd5b506102636004803603602081101561024d57600080fd5b8101908080359060200190929190505050610ab3565b604051808c81526020018b6fffffffffffffffffffffffffffffffff166fffffffffffffffffffffffffffffffff1681526020018a6fffffffffffffffffffffffffffffffff166fffffffffffffffffffffffffffffffff1681526020018967ffffffffffffffff1667ffffffffffffffff1681526020018060200188601060200280838360005b838110156103065780820151818401526020810190506102eb565b505050509050018767ffffffffffffffff1667ffffffffffffffff1681526020018661ffff1661ffff1681526020018560ff1660ff168152602001841515151581526020018367ffffffffffffffff1667ffffffffffffffff168152602001828103825289818151815260200191508051906020019080838360005b8381101561039d578082015181840152602081019050610382565b50505050905090810190601f1680156103ca5780820380516001836020036101000a031916815260200191505b509c5050505050505050505050505060405180910390f35b3480156103ee57600080fd5b5061041b6004803603602081101561040557600080fd5b8101908080359060200190929190505050610efa565b604051808b81526020018a6fffffffffffffffffffffffffffffffff166fffffffffffffffffffffffffffffffff168152602001896fffffffffffffffffffffffffffffffff166fffffffffffffffffffffffffffffffff1681526020018867ffffffffffffffff1667ffffffffffffffff168152602001806020018767ffffffffffffffff1667ffffffffffffffff1681526020018661ffff1661ffff1681526020018560ff1660ff168152602001841515151581526020018367ffffffffffffffff1667ffffffffffffffff168152602001828103825288818151815260200191508051906020019080838360005b8381101561052757808201518184015260208101905061050c565b50505050905090810190601f1680156105545780820380516001836020036101000a031916815260200191505b509b50505050505050505050505060405180910390f35b34801561057757600080fd5b50610580611091565b6040518082815260200191505060405180910390f35b3480156105a257600080fd5b5061074460048036036103408110156105ba57600080fd5b810190808035906020019092919080356fffffffffffffffffffffffffffffffff16906020019092919080356fffffffffffffffffffffffffffffffff169060200190929190803567ffffffffffffffff1690602001909291908035906020019064010000000081111561062d57600080fd5b82018360208201111561063f57600080fd5b8035906020019184600183028401116401000000008311171561066157600080fd5b91908080601f016020809104026020016040519081016040528093929190818152602001838380828437600081840152601f19601f8201169050808301925050505050505091929192908061020001906010806020026040519081016040528092919082601060200280828437600081840152601f19601f8201169050808301925050505050509192919290803567ffffffffffffffff169060200190929190803561ffff169060200190929190803560ff169060200190929190803515159060200190929190803567ffffffffffffffff16906020019092919050505061109d565b6040518082815260200191505060405180910390f35b600080600080606061076a61133e565b600080600080600061077a611362565b60008d81548110151561078957fe5b90600052602060002090600902016101606040519081016040529081600082015481526020016001820160009054906101000a90046fffffffffffffffffffffffffffffffff166fffffffffffffffffffffffffffffffff166fffffffffffffffffffffffffffffffff1681526020016001820160109054906101000a90046fffffffffffffffffffffffffffffffff166fffffffffffffffffffffffffffffffff166fffffffffffffffffffffffffffffffff1681526020016002820160009054906101000a900467ffffffffffffffff1667ffffffffffffffff1667ffffffffffffffff168152602001600382018054600181600116156101000203166002900480601f01602080910402602001604051908101604052809291908181526020018280546001816001161561010002031660029004801561090d5780601f106108e25761010080835404028352916020019161090d565b820191906000526020600020905b8154815290600101906020018083116108f057829003601f168201915b5050505050815260200160048201601080602002604051908101604052809291908260108015610986576020028201916000905b82829054906101000a900467ffffffffffffffff1667ffffffffffffffff16815260200190600801906020826007010492830192600103820291508084116109415790505b505050505081526020016008820160009054906101000a900467ffffffffffffffff1667ffffffffffffffff1667ffffffffffffffff1681526020016008820160089054906101000a900461ffff1661ffff1661ffff16815260200160088201600a9054906101000a900460ff1660ff1660ff16815260200160088201600b9054906101000a900460ff1615151515815260200160088201600c9054906101000a900467ffffffffffffffff1667ffffffffffffffff1667ffffffffffffffff16815250509050806000015181602001518260400151836060015184608001518560a001518660c001518760e001518861010001518961012001518a61014001518696508595509b509b509b509b509b509b509b509b509b509b509b505091939597999b90929496989a50565b6000806000806060610ac361133e565b6000806000806000600180141515610b43576040517f08c379a00000000000000000000000000000000000000000000000000000000081526004018080602001828103825260138152602001807f414848484848484848484848484848484848480000000000000000000000000081525060200191505060405180910390fd5b6000805490508c101515610bbf576040517f08c379a000000000000000000000000000000000000000000000000000000000815260040180806020018281038252601d8152602001807f496e6465782067726561746572207468616e20746865206c656e67746800000081525060200191505060405180910390fd5b610bc7611362565b60008d815481101515610bd657fe5b90600052602060002090600902016101606040519081016040529081600082015481526020016001820160009054906101000a90046fffffffffffffffffffffffffffffffff166fffffffffffffffffffffffffffffffff166fffffffffffffffffffffffffffffffff1681526020016001820160109054906101000a90046fffffffffffffffffffffffffffffffff166fffffffffffffffffffffffffffffffff166fffffffffffffffffffffffffffffffff1681526020016002820160009054906101000a900467ffffffffffffffff1667ffffffffffffffff1667ffffffffffffffff168152602001600382018054600181600116156101000203166002900480601f016020809104026020016040519081016040528092919081815260200182805460018160011615610100020316600290048015610d5a5780601f10610d2f57610100808354040283529160200191610d5a565b820191906000526020600020905b815481529060010190602001808311610d3d57829003601f168201915b5050505050815260200160048201601080602002604051908101604052809291908260108015610dd3576020028201916000905b82829054906101000a900467ffffffffffffffff1667ffffffffffffffff1681526020019060080190602082600701049283019260010382029150808411610d8e5790505b505050505081526020016008820160009054906101000a900467ffffffffffffffff1667ffffffffffffffff1667ffffffffffffffff1681526020016008820160089054906101000a900461ffff1661ffff1661ffff16815260200160088201600a9054906101000a900460ff1660ff1660ff16815260200160088201600b9054906101000a900460ff1615151515815260200160088201600c9054906101000a900467ffffffffffffffff1667ffffffffffffffff1667ffffffffffffffff1681525050905080600001519b5080602001519a508060400151995080606001519850806080015197508060a0015196508060c0015195508060e0015194508061010001519350806101200151925080610140015191505091939597999b90929496989a50565b600081815481101515610f0957fe5b90600052602060002090600902016000915090508060000154908060010160009054906101000a90046fffffffffffffffffffffffffffffffff16908060010160109054906101000a90046fffffffffffffffffffffffffffffffff16908060020160009054906101000a900467ffffffffffffffff1690806003018054600181600116156101000203166002900480601f0160208091040260200160405190810160405280929190818152602001828054600181600116156101000203166002900480156110195780601f10610fee57610100808354040283529160200191611019565b820191906000526020600020905b815481529060010190602001808311610ffc57829003601f168201915b5050505050908060080160009054906101000a900467ffffffffffffffff16908060080160089054906101000a900461ffff169080600801600a9054906101000a900460ff169080600801600b9054906101000a900460ff169080600801600c9054906101000a900467ffffffffffffffff1690508a565b60008080549050905090565b60006110a7611362565b610160604051908101604052808e81526020018d6fffffffffffffffffffffffffffffffff1681526020018c6fffffffffffffffffffffffffffffffff1681526020018b67ffffffffffffffff1681526020018a81526020018981526020018867ffffffffffffffff1681526020018761ffff1681526020018660ff16815260200185151581526020018467ffffffffffffffff168152509050600081908060018154018082558091505090600182039060005260206000209060090201600090919290919091506000820151816000015560208201518160010160006101000a8154816fffffffffffffffffffffffffffffffff02191690836fffffffffffffffffffffffffffffffff16021790555060408201518160010160106101000a8154816fffffffffffffffffffffffffffffffff02191690836fffffffffffffffffffffffffffffffff16021790555060608201518160020160006101000a81548167ffffffffffffffff021916908367ffffffffffffffff160217905550608082015181600301908051906020019061124292919061140e565b5060a08201518160040190601061125a92919061148e565b5060c08201518160080160006101000a81548167ffffffffffffffff021916908367ffffffffffffffff16021790555060e08201518160080160086101000a81548161ffff021916908361ffff16021790555061010082015181600801600a6101000a81548160ff021916908360ff16021790555061012082015181600801600b6101000a81548160ff02191690831515021790555061014082015181600801600c6101000a81548167ffffffffffffffff021916908367ffffffffffffffff1602179055505050506001600080549050039150509b9a5050505050505050505050565b61020060405190810160405280601090602082028038833980820191505090505090565b610340604051908101604052806000815260200160006fffffffffffffffffffffffffffffffff16815260200160006fffffffffffffffffffffffffffffffff168152602001600067ffffffffffffffff168152602001606081526020016113c861153d565b8152602001600067ffffffffffffffff168152602001600061ffff168152602001600060ff168152602001600015158152602001600067ffffffffffffffff1681525090565b828054600181600116156101000203166002900490600052602060002090601f016020900481019282601f1061144f57805160ff191683800117855561147d565b8280016001018555821561147d579182015b8281111561147c578251825591602001919060010190611461565b5b50905061148a9190611561565b5090565b82601060030160049004810192821561152c5791602002820160005b838211156114f657835183826101000a81548167ffffffffffffffff021916908367ffffffffffffffff16021790555092602001926008016020816007010492830192600103026114aa565b801561152a5782816101000a81549067ffffffffffffffff02191690556008016020816007010492830192600103026114f6565b505b5090506115399190611586565b5090565b61020060405190810160405280601090602082028038833980820191505090505090565b61158391905b8082111561157f576000816000905550600101611567565b5090565b90565b6115ba91905b808211156115b657600081816101000a81549067ffffffffffffffff02191690555060010161158c565b5090565b9056fea165627a7a723058209839042a13ed051120bd22a4d9138633629547b52913372533f10f38ad0ea3e70029",
  "source": "pragma solidity ^0.5.0;\n\nimport \"./PrescriptionData.sol\";\nimport \"./PrescriptionAccessControl.sol\";\n\ncontract Patient is PrescriptionData, PrescriptionAccessControl{\n\n    /*\n    Gets the prescription for a patient user.\n    Args:\n        prescriptionIndex(uint): Index of the prescription in the drugChain.\n    Returns:\n        Information from a Prescription struct\n    */\n    function getPatientPrescription(uint prescriptionIndex) public view onlyPatient returns(\n        uint256 patientID,\n        uint128 prescriberID,\n        uint128 dispenserID,\n        uint64 drugID,\n        string memory drugQuantity, \n        uint64[16] memory fulfillmentDates,\n        uint64 dateWritten,  \n        uint16 daysValid,\n        uint8 refillsLeft,\n        bool isCancelled, \n        uint64 cancelDate\n    ){\n        require(prescriptionIndex < drugChain.length, \"Index greater than the length\");\n\n        Prescription memory patient = drugChain[prescriptionIndex];\n        // check if patientAccount is msg.sender, in the future TBI\n\n        patientID = patient.patientID;\n        prescriberID = patient.prescriberID;\n        dispenserID = patient.dispenserID;\n        drugID = patient.drugID;\n        drugQuantity = patient.drugQuantity;\n        fulfillmentDates = patient.fulfillmentDates;\n        dateWritten = patient.dateWritten;\n        daysValid = patient.daysValid;\n        refillsLeft = patient.refillsLeft;\n        isCancelled = patient.isCancelled;\n        cancelDate = patient.cancelDate; \n    }\n    \n}\n",
  "sourcePath": "/home/jeb/PharmaChain/contracts/Patient.sol",
  "compiler": {
    "name": "solc",
    "version": "0.5.0+commit.1d4f565a.Emscripten.clang"
  },
  "schemaVersion": "3.0.1",
  "updatedAt": "2019-01-28T09:54:05.339Z",
  "devdoc": {
    "methods": {}
  },
  "userdoc": {
    "methods": {}
  }
}