{
  "contractName": "PrescriptionData",
  "abi": [
    {
      "constant": true,
      "inputs": [
        {
          "name": "",
          "type": "uint256"
        }
      ],
      "name": "drugChain",
      "outputs": [
        {
          "name": "patientID",
          "type": "uint256"
        },
        {
          "name": "prescriberID",
          "type": "uint128"
        },
        {
          "name": "dispenserID",
          "type": "uint128"
        },
        {
          "name": "drugID",
          "type": "uint64"
        },
        {
          "name": "drugQuantity",
          "type": "string"
        },
        {
          "name": "dateWritten",
          "type": "uint64"
        },
        {
          "name": "daysValid",
          "type": "uint16"
        },
        {
          "name": "refillsLeft",
          "type": "uint8"
        },
        {
          "name": "isCancelled",
          "type": "bool"
        },
        {
          "name": "cancelDate",
          "type": "uint64"
        }
      ],
      "payable": false,
      "stateMutability": "view",
      "type": "function"
    },
    {
      "constant": true,
      "inputs": [
        {
          "name": "chainIndex",
          "type": "uint256"
        }
      ],
      "name": "getPrescription",
      "outputs": [
        {
          "name": "",
          "type": "uint256"
        },
        {
          "name": "",
          "type": "uint128"
        },
        {
          "name": "",
          "type": "uint128"
        },
        {
          "name": "",
          "type": "uint64"
        },
        {
          "name": "",
          "type": "string"
        },
        {
          "name": "",
          "type": "uint64[16]"
        },
        {
          "name": "",
          "type": "uint64"
        },
        {
          "name": "",
          "type": "uint16"
        },
        {
          "name": "",
          "type": "uint8"
        },
        {
          "name": "",
          "type": "bool"
        },
        {
          "name": "",
          "type": "uint64"
        }
      ],
      "payable": false,
      "stateMutability": "view",
      "type": "function"
    },
    {
      "constant": true,
      "inputs": [],
      "name": "getDrugChainLength",
      "outputs": [
        {
          "name": "",
          "type": "uint256"
        }
      ],
      "payable": false,
      "stateMutability": "view",
      "type": "function"
    },
    {
      "constant": false,
      "inputs": [
        {
          "name": "patientID",
          "type": "uint256"
        },
        {
          "name": "prescriberID",
          "type": "uint128"
        },
        {
          "name": "dispenserID",
          "type": "uint128"
        },
        {
          "name": "drugID",
          "type": "uint64"
        },
        {
          "name": "drugQuantity",
          "type": "string"
        },
        {
          "name": "fulfillmentDates",
          "type": "uint64[16]"
        },
        {
          "name": "dateWritten",
          "type": "uint64"
        },
        {
          "name": "daysValid",
          "type": "uint16"
        },
        {
          "name": "refillsLeft",
          "type": "uint8"
        },
        {
          "name": "isCancelled",
          "type": "bool"
        },
        {
          "name": "cancelDate",
          "type": "uint64"
        }
      ],
      "name": "addPrescription",
      "outputs": [
        {
          "name": "",
          "type": "uint256"
        }
      ],
      "payable": false,
      "stateMutability": "nonpayable",
      "type": "function"
    }
  ],
  "bytecode": "0x608060405234801561001057600080fd5b50610fdf806100206000396000f3fe608060405260043610610062576000357c0100000000000000000000000000000000000000000000000000000000900463ffffffff1680636f16af101461006757806385c681cf1461021f578063cc9e2fe4146103a8578063e9d20eff146103d3575b600080fd5b34801561007357600080fd5b506100a06004803603602081101561008a57600080fd5b8101908080359060200190929190505050610597565b604051808c81526020018b6fffffffffffffffffffffffffffffffff166fffffffffffffffffffffffffffffffff1681526020018a6fffffffffffffffffffffffffffffffff166fffffffffffffffffffffffffffffffff1681526020018967ffffffffffffffff1667ffffffffffffffff1681526020018060200188601060200280838360005b83811015610143578082015181840152602081019050610128565b505050509050018767ffffffffffffffff1667ffffffffffffffff1681526020018661ffff1661ffff1681526020018560ff1660ff168152602001841515151581526020018367ffffffffffffffff1667ffffffffffffffff168152602001828103825289818151815260200191508051906020019080838360005b838110156101da5780820151818401526020810190506101bf565b50505050905090810190601f1680156102075780820380516001836020036101000a031916815260200191505b509c5050505050505050505050505060405180910390f35b34801561022b57600080fd5b506102586004803603602081101561024257600080fd5b81019080803590602001909291905050506108f0565b604051808b81526020018a6fffffffffffffffffffffffffffffffff166fffffffffffffffffffffffffffffffff168152602001896fffffffffffffffffffffffffffffffff166fffffffffffffffffffffffffffffffff1681526020018867ffffffffffffffff1667ffffffffffffffff168152602001806020018767ffffffffffffffff1667ffffffffffffffff1681526020018661ffff1661ffff1681526020018560ff1660ff168152602001841515151581526020018367ffffffffffffffff1667ffffffffffffffff168152602001828103825288818151815260200191508051906020019080838360005b83811015610364578082015181840152602081019050610349565b50505050905090810190601f1680156103915780820380516001836020036101000a031916815260200191505b509b50505050505050505050505060405180910390f35b3480156103b457600080fd5b506103bd610a87565b6040518082815260200191505060405180910390f35b3480156103df57600080fd5b5061058160048036036103408110156103f757600080fd5b810190808035906020019092919080356fffffffffffffffffffffffffffffffff16906020019092919080356fffffffffffffffffffffffffffffffff169060200190929190803567ffffffffffffffff1690602001909291908035906020019064010000000081111561046a57600080fd5b82018360208201111561047c57600080fd5b8035906020019184600183028401116401000000008311171561049e57600080fd5b91908080601f016020809104026020016040519081016040528093929190818152602001838380828437600081840152601f19601f8201169050808301925050505050505091929192908061020001906010806020026040519081016040528092919082601060200280828437600081840152601f19601f8201169050808301925050505050509192919290803567ffffffffffffffff169060200190929190803561ffff169060200190929190803560ff169060200190929190803515159060200190929190803567ffffffffffffffff169060200190929190505050610a93565b6040518082815260200191505060405180910390f35b60008060008060606105a7610d34565b60008060008060006105b7610d58565b60008d8154811015156105c657fe5b90600052602060002090600902016101606040519081016040529081600082015481526020016001820160009054906101000a90046fffffffffffffffffffffffffffffffff166fffffffffffffffffffffffffffffffff166fffffffffffffffffffffffffffffffff1681526020016001820160109054906101000a90046fffffffffffffffffffffffffffffffff166fffffffffffffffffffffffffffffffff166fffffffffffffffffffffffffffffffff1681526020016002820160009054906101000a900467ffffffffffffffff1667ffffffffffffffff1667ffffffffffffffff168152602001600382018054600181600116156101000203166002900480601f01602080910402602001604051908101604052809291908181526020018280546001816001161561010002031660029004801561074a5780601f1061071f5761010080835404028352916020019161074a565b820191906000526020600020905b81548152906001019060200180831161072d57829003601f168201915b50505050508152602001600482016010806020026040519081016040528092919082601080156107c3576020028201916000905b82829054906101000a900467ffffffffffffffff1667ffffffffffffffff168152602001906008019060208260070104928301926001038202915080841161077e5790505b505050505081526020016008820160009054906101000a900467ffffffffffffffff1667ffffffffffffffff1667ffffffffffffffff1681526020016008820160089054906101000a900461ffff1661ffff1661ffff16815260200160088201600a9054906101000a900460ff1660ff1660ff16815260200160088201600b9054906101000a900460ff1615151515815260200160088201600c9054906101000a900467ffffffffffffffff1667ffffffffffffffff1667ffffffffffffffff16815250509050806000015181602001518260400151836060015184608001518560a001518660c001518760e001518861010001518961012001518a61014001518696508595509b509b509b509b509b509b509b509b509b509b509b505091939597999b90929496989a50565b6000818154811015156108ff57fe5b90600052602060002090600902016000915090508060000154908060010160009054906101000a90046fffffffffffffffffffffffffffffffff16908060010160109054906101000a90046fffffffffffffffffffffffffffffffff16908060020160009054906101000a900467ffffffffffffffff1690806003018054600181600116156101000203166002900480601f016020809104026020016040519081016040528092919081815260200182805460018160011615610100020316600290048015610a0f5780601f106109e457610100808354040283529160200191610a0f565b820191906000526020600020905b8154815290600101906020018083116109f257829003601f168201915b5050505050908060080160009054906101000a900467ffffffffffffffff16908060080160089054906101000a900461ffff169080600801600a9054906101000a900460ff169080600801600b9054906101000a900460ff169080600801600c9054906101000a900467ffffffffffffffff1690508a565b60008080549050905090565b6000610a9d610d58565b610160604051908101604052808e81526020018d6fffffffffffffffffffffffffffffffff1681526020018c6fffffffffffffffffffffffffffffffff1681526020018b67ffffffffffffffff1681526020018a81526020018981526020018867ffffffffffffffff1681526020018761ffff1681526020018660ff16815260200185151581526020018467ffffffffffffffff168152509050600081908060018154018082558091505090600182039060005260206000209060090201600090919290919091506000820151816000015560208201518160010160006101000a8154816fffffffffffffffffffffffffffffffff02191690836fffffffffffffffffffffffffffffffff16021790555060408201518160010160106101000a8154816fffffffffffffffffffffffffffffffff02191690836fffffffffffffffffffffffffffffffff16021790555060608201518160020160006101000a81548167ffffffffffffffff021916908367ffffffffffffffff1602179055506080820151816003019080519060200190610c38929190610e04565b5060a082015181600401906010610c50929190610e84565b5060c08201518160080160006101000a81548167ffffffffffffffff021916908367ffffffffffffffff16021790555060e08201518160080160086101000a81548161ffff021916908361ffff16021790555061010082015181600801600a6101000a81548160ff021916908360ff16021790555061012082015181600801600b6101000a81548160ff02191690831515021790555061014082015181600801600c6101000a81548167ffffffffffffffff021916908367ffffffffffffffff1602179055505050506001600080549050039150509b9a5050505050505050505050565b61020060405190810160405280601090602082028038833980820191505090505090565b610340604051908101604052806000815260200160006fffffffffffffffffffffffffffffffff16815260200160006fffffffffffffffffffffffffffffffff168152602001600067ffffffffffffffff16815260200160608152602001610dbe610f33565b8152602001600067ffffffffffffffff168152602001600061ffff168152602001600060ff168152602001600015158152602001600067ffffffffffffffff1681525090565b828054600181600116156101000203166002900490600052602060002090601f016020900481019282601f10610e4557805160ff1916838001178555610e73565b82800160010185558215610e73579182015b82811115610e72578251825591602001919060010190610e57565b5b509050610e809190610f57565b5090565b826010600301600490048101928215610f225791602002820160005b83821115610eec57835183826101000a81548167ffffffffffffffff021916908367ffffffffffffffff1602179055509260200192600801602081600701049283019260010302610ea0565b8015610f205782816101000a81549067ffffffffffffffff0219169055600801602081600701049283019260010302610eec565b505b509050610f2f9190610f7c565b5090565b61020060405190810160405280601090602082028038833980820191505090505090565b610f7991905b80821115610f75576000816000905550600101610f5d565b5090565b90565b610fb091905b80821115610fac57600081816101000a81549067ffffffffffffffff021916905550600101610f82565b5090565b9056fea165627a7a7230582065d20952253fb36af6cce918444d7e4c546c33c67ab75ec9452ddc8f6a8c05b90029",
  "source": "pragma solidity ^0.5.0;\n\nimport \"./PrescriptionBase.sol\";\n\n\ncontract PrescriptionData is PrescriptionBase {\n\n    \n    Prescription[] public drugChain;\n\n    /*\n    Get a single prescription.\n    Args:\n        uint(chainIndex): The index of the drugChain;\n    */\n    /*\n    function getPrescription(uint chainIndex) public view returns (\n        uint256 patientID,\n        uint128 prescriberID,\n        uint128 dispenserID,\n        uint64 drugID,\n        string drugQuantity, \n        uint64[] fullfillmentDates,\n        uint64 dateWritten,  \n        uint16 daysValid,\n        uint8[] refillsLeft,\n        bool isCancelled, \n        uint64 cancelDate\n    ){\n        Prescription memory patient = drugChain[chainIndex];\n        patientID = patient.patientID;\n        prescriberID = patient.prescriberID;\n        dispenserID = patient.dispenserID;\n        drugID = patient.drugID;\n        drugQuantity = patient.drugQuantity;\n        fullfillmentDates = patient.fullfillmentDates;\n        dateWritten = patient.dateWritten;\n        daysValid = patient.daysValid;\n        refillsLeft = patient.refillsLeft;\n        isCancelled = patient.isCancelled;\n        cancelDate = patient.cancelDate;\n    }*/\n//Fullfilment date and refill left removed\n    function getPrescription(uint chainIndex) public view returns (uint256, uint128, uint128, uint64, string memory, uint64[16] memory, uint64, uint16, uint8, bool, uint64){\n        Prescription memory p = drugChain[chainIndex];\n        return (p.patientID, p.prescriberID, p.dispenserID, p.drugID, p.drugQuantity,\n        p.fulfillmentDates, p.dateWritten, p.daysValid, p.refillsLeft, p.isCancelled, p.cancelDate);\n    }\n\n    function getDrugChainLength() public view returns (uint) {\n        return drugChain.length;\n    }\n    \n    /*\n    */\n\n        //uint64[] fullfillmentDates,\n        //uint8[] refillsLeft,\n    function addPrescription(\n        uint256 patientID,\n        uint128 prescriberID,\n        uint128 dispenserID,\n        uint64 drugID,\n        string memory drugQuantity, \n        uint64[16] memory fulfillmentDates,\n        uint64 dateWritten,  \n        uint16 daysValid,\n        uint8 refillsLeft,\n        bool isCancelled, \n        uint64 cancelDate) public returns (uint) {\n        //drugChain.push((patientID,prescriberID,dispenserID,drugID,drugQuantity,dateWritten,daysValid,isCancelled,cancelDate));\n        /*fullfillmentDates,*/\n        Prescription memory p = Prescription(patientID,prescriberID,dispenserID,drugID,drugQuantity,\n        fulfillmentDates,dateWritten, daysValid, refillsLeft, isCancelled, cancelDate);\n\n        drugChain.push(p);\n        return drugChain.length -1;\n\n\n    }\n\n}\n",
  "sourcePath": "/home/jeb/PharmaChain/contracts/PrescriptionData.sol",
  "compiler": {
    "name": "solc",
    "version": "0.5.0+commit.1d4f565a.Emscripten.clang"
  },
  "schemaVersion": "3.0.1",
  "updatedAt": "2019-01-28T09:54:05.340Z",
  "devdoc": {
    "methods": {}
  },
  "userdoc": {
    "methods": {}
  }
}